:020000040800F2
:10000000380F00209D010008A5010008A701000885
:10001000A9010008AB010008AD01000800000000C4
:10002000000000000000000000000000AF01000818
:10003000B101000800000000B3010008D120000851
:10004000B7010008B7010008B7010008B7010008B0
:10005000B7010008B7010008B7010008B7010008A0
:10006000B7010008B7010008B7010008B701000890
:10007000B7010008B7010008B7010008B701000880
:10008000B7010008B7010008B7010008B701000870
:10009000B7010008B7010008B7010008B701000860
:1000A000C1210008B7010008B7010008B701000826
:1000B000B7010008B701000875220008610C0008AC
:1000C000210B0008B7010008B7010008B7010008BC
:1000D000B7010008B7010008B7010008B701000820
:1000E000B7010008B7010008B7010008DD230008C8
:1000F000B7010008B7010008B7010008B701000800
:10010000B7010008B701000829230008B70100085B
:10011000B7010008B7010008B7010008B7010008DF
:10012000B7010008B7010008B7010008B7010008CF
:10013000B7010008B7010008B7010008B7010008BF
:10014000B7010008B7010008B7010008B7010008AF
:10015000B7010008B7010008B7010008B70100089F
:10016000B7010008B7010008B7010008B70100088F
:10017000B7010008B7010008B7010008B70100087F
:10018000B7010008B7010008DFF80CD000F054FBFD
:1001900000480047AD340008380F0020064880476B
:1001A00006480047FEE7FEE7FEE7FEE7FEE7FEE75C
:1001B000FEE7FEE7FEE7FEE70121000889010008EF
:1001C0000649074A0868504343F239021044086060
:1001D0004008704701490860704700007400002023
:1001E0006D4EC64140EA01039B0703D009E008C9F0
:1001F000121F08C0042AFAD203E011F8013B00F8EC
:10020000013B521EF9D27047D2B201E000F8012B37
:10021000491EFBD270470022F6E710B513460A4686
:1002200004461946FFF7F0FF204610BD421C10F8A7
:10023000011B0029FBD1801A70472DE9FE4F804633
:1002400081EA0300C00F0C46009021F0004123F02A
:100250000045B8EB0200A94105D240462146904630
:100260001C460B46024623F00040104347D0270DA2
:10027000C7F30A00C3F30A510290401A01904028C4
:100280006BDAC3F3130040F4801B0098924620B150
:100290000023D2EB030A63EB0B0B01985946C0F124
:1002A0004002504600F0C2F906460D4650465946F7
:1002B000019A00F0CAF910EB08006141002487EAB6
:1002C000115284EAE7731A4340D0009A62B3019A4C
:1002D000012A4FEA075215DC001B61EB02014FF0C7
:1002E000004202EA0752CDE90042001C41F58011AC
:1002F00032462B4600F001FA03B0BDE8F08F4046CD
:100300002146F9E7001B61EB0201001C41F5801357
:1003100000185B412018A2F5001747EB030140EAE3
:10032000D570B6196D4111E06D084FEA360645EA01
:10033000C0754FEA0752001B61EB0201001C41F53A
:10034000801149084FEA30000019514132462B46CE
:1003500003B0BDE8F04F00F0C1B9009801224000A1
:100360000023D0EB020263EBE073009821464FEAD2
:10037000E074B8EB000061EB0401E9E783F00043AF
:100380005BE781F0004158E72DE9FE4F81EA030465
:1003900004F0004421F0004100944FF0000B23F0E2
:1003A000004350EA01045ED052EA03045BD0C3F379
:1003B0000A54C1F30A552C44A4F2F3340194A0FB6F
:1003C0000254C1F3130141F48011C3F3130343F446
:1003D000801301FB024400FB034E840A970A44EA9F
:1003E000815447EA8357A4FB076802958D0A05FBF1
:1003F00007854FEA932C04FB0C542705029D4FEA16
:10040000065847EA1637B5EB08056EEB070C870E62
:10041000920E47EA811742EA8312A7FB0201B6EB6C
:100420000B0164EB00042B0D43EA0C335E1844EB24
:100430001C50DA465146E7FB0201C5F313044FEAAC
:100440000B3343EA14534FEA0432019C43EA060398
:10045000A4F10C040294009CCDE900B400F04DF925
:1004600003B0BDE8F08F00200146F9E72DE9F04D1B
:1004700081EA030404F0004B21F0004514464FF0DC
:10048000000A23F0004150EA050220D054EA01029C
:100490001DD0C5F30A570246C5F31303C1F3130079
:1004A000C1F30A5640F4801543F48013A7EB060805
:1004B000101BD64608F2FD3873EB050002D308F195
:1004C000010801E092185B41B8F1000F03DA002047
:1004D0000146BDE8F08D00204FF4801106468446A9
:1004E0000EE0171B73EB050705D3121B63EB050327
:1004F00006434CEA010C49084FEA300092185B4170
:1005000050EA0107EDD152EA030012D082EA04005A
:1005100083EA0501084305D0101BAB4106D2012236
:10052000002306E000224FF0004302E06FF00102DA
:1005300053101AEB06004CEB085110EB0A0041EB8C
:100540000B01BDE8F04D00F0C9B80EB5C10F80EA4F
:10055000E0700844CA07002140F233438DE80E00E2
:100560000A460B4600F0C9F803B000BD00F0004297
:1005700030F000400AD0C10D01F56071C0F31600E3
:1005800042EA0151C208400711437047002001466A
:10059000704701F0004330B421F0004150EA0102FD
:1005A00006D00A0DA2F56072C1F31301002A02DC25
:1005B00030BC00207047440F44EAC104C100E01879
:1005C00030BC00EBC25000F052B82DE9F05F054698
:1005D000002092469B4688460646814640241BE002
:1005E000284641464746224600F038F953465A46C7
:1005F000C01A914110D311461846224600F016F851
:100600002D1A67EB01084F4622460120002100F019
:100610000DF817EB00094E41201EA4F10104DFDCA8
:10062000484631462A464346BDE8F09F202A04DB6F
:10063000203A00FA02F1002070479140C2F12003F5
:1006400020FA03F3194390407047202A06DBCB17AA
:10065000203A41FA02F043EAE07306E041FA02F37D
:10066000D040C2F12002914008431946704700294A
:10067000A8BF7047401C490008BF20F00100704728
:1006800010B4B0FA80FC00FA0CF050EA010404BF88
:1006900010BC704749B1CCF1200421FA04F411FADE
:1006A0000CF118BF012121430843A3EB0C01CB1D22
:1006B0004FEA00614FEA102042BF002010BC704793
:1006C00000EBC35010440029A4BF10BC7047401C6D
:1006D000490008BF20F0010010BC704710B5141E7F
:1006E00073F1000408DA401C41F1000192185B41EB
:1006F0001A4301D120F0010010BD2DE9F04D9246C2
:100700009B4611B1B1FA81F202E0B0FA80F22032D8
:100710009046FFF78BFF04460F4640EA0A0041EA85
:100720000B0153465A46084313D0114653EA0100C1
:1007300019D0C8F14002504600F090F805460E4628
:10074000504659464246FFF771FF084305D0012045
:1007500004E020463946BDE8F08D0020054346EA16
:10076000E0762C4337430A986305E40AA0EB0800BF
:100770000022FD0A44EA47540A3002D5002001460F
:10078000E9E7010510196941DDE9084500196941EA
:10079000BDE8F04DA2E72DE9F04D00231A461B1AE3
:1007A0008A4103DB00200146BDE8F08DC1F30A5207
:1007B000C1F3130141F480154FF0000BD10702D1B2
:1007C00000186D41521E0027044640F2FF113846C2
:1007D00001EB620A3E468046024600204FF480113B
:1007E00000F03CF8C2197141BB1846EB0100B4EBB4
:1007F000030C75EB000C04D3E41A65EB00051746F7
:100800000E46241908F101006D4180463428E3DDCD
:10081000F91946EB0600091BA84103D24FF0FF323D
:10082000134601E0002213461BEB070046EB0A517A
:10083000BDE8F04DFFF752BF064C074D06E0E068FB
:1008400040F0010394E8070098471034AC42F6D317
:10085000FFF79EFC403C0008603C0008202A04DBB7
:10086000203A21FA02F00021704721FA02F3D04029
:10087000C2F12002914008431946704710B52DED92
:10088000068BB0EE40AA9FED270A80EE208A18EE74
:10089000100AFFF76BFE41EC100B53EC102B9FED91
:1008A000220B51EC100BFFF7E1FD9FED219B53EC68
:1008B000192BFFF769FDFFF76CFE08EE900A18EEA2
:1008C000100AFFF753FE41EC110B9FED1B0B53EC8D
:1008D000112B51EC100BFFF7C9FD53EC192BFFF74F
:1008E00053FDFFF756FE00EE900A164938EEE00A77
:1008F0003AEE401A81EE200ADFED110A20EE200ABE
:1009000010EE100A884204DDB0EE600ABDEC068BE2
:1009100010BDB5EEC00AF1EE10FAF7D29FED0A0A4B
:10092000F4E7000000007A440000000000000040EE
:100930000000000000005940000000000000F03FEF
:100940000000C8420000C8420000000010B5044684
:100950002DED028BF0EE408AB0EE608A18EE900A20
:1009600002F0D2F820B918EE100A02F0CDF820B14A
:100970009FED0F0ABDEC028B10BD78EE680A94ED76
:10098000030AC4ED030A30EEC01A94ED040A30EEF7
:10099000200A84ED040AD4ED011A21EE800AD4ED78
:1009A000001A01EEA00AD4ED020A00EE810AE1E786
:1009B0000000000010B5074C2068002809D0064947
:1009C0000968814205D34FF4005001F061FF002017
:1009D000206010BD480000206C0000200948C1685C
:1009E00000290ED181680A6842F080720A600268AC
:1009F0000021116041680A6842F001020A60012189
:100A0000C16070472400002010B5074C07E006487D
:100A100001F012FA02F01CF80A2001F0D9FFD4F814
:100A200008080028F3DC10BDAC00002070B50024DD
:100A3000074D08E0064801F0FFF902F009F8641CD0
:100A4000E4B2052C03D2D5F808080028F2DC70BD0A
:100A5000AC000020F0B50023012403270D6804FA40
:100A600003F21540954242D1D0F800C05E0007FA6B
:100A700006F52CEA050CC0F800C091F804C0D0F8C7
:100A800000E00CFA06FC4CEA0E0CC0F800C091F82D
:100A900004C0BCF1010F02D0BCF1020F1FD1D0F88D
:100AA00008C02CEA050CC0F808C091F805C0D0F8C1
:100AB00008E00CFA06FC4CEA0E0CC0F808C0D0F8AE
:100AC00004C02CEA020CC0F804C0426891F806C0C9
:100AD0000CFA03FC1FFA8CFC42EA0C024260C2686A
:100AE000AA43C260CA79C568B2402A43C2605B1C8F
:100AF000102BB3D3F0BD4B07DB0E9A40C90810B5DD
:100B000000EB8100016A0F249C40A1430162016A4D
:100B10001143016210BD418370470183704700009B
:100B200070B5234C00224FF4E061204600F0BBF981
:100B300020490120204D08702946204600F09AF9EE
:100B400008B11EA027E04FF001252946204600F0FD
:100B500091F908B120A01EE0234D2046294600F05F
:100B600089F908B121A016E0264D2046294600F05B
:100B700081F908B124A00EE0294D2046294600F055
:100B800079F908B127A006E02B4D2046294600F050
:100B900071F940B129A002F09DFF29462046BDE829
:100BA000704000F031B9BDE8704028A002F092BF5B
:100BB0000054004037000020000400016932633116
:100BC0002061636B6E6F776C656467652066616931
:100BD0006C757265000000006932633120627573C4
:100BE000206572726F720000000200016932633189
:100BF000206172626974726174696F6E206C6F73C8
:100C0000730000000008000169326331206F7665CF
:100C10007272756E2F756E64657272756E0000006B
:100C200000400001693263312074696D656F75742D
:100C30002F746C6F7700000000100001693263317F
:100C400020706563206572726F72000069326331D3
:100C5000206572726F7220756E6B6E6F776E00001A
:100C60002DE9F047464F384600F016F9454A01464F
:100C7000801A0026444C454D4FF001084FF4E069BE
:100C8000914237D008DC6FF44030081820D001289A
:100C90002ED03F2808D12DE03D4B3E4A3E38B0F5DE
:100CA00080204FD0022851D03B4A1068401C106071
:100CB000B0F57A7F0AD939A002F036FF0022494602
:100CC000384600F0F0F83F4880F80080BDE8F08733
:100CD0000121384600F082F829783B4809B100220A
:100CE00000E0012201783846BDE8F04700F043B942
:100CF0002670EBE7354D20782978801C884203D197
:100D00000021384600F06AF820782978884208D215
:100D1000384600F02DF901462D4A20781154401C28
:100D200020702978C0B28842D0D10121384600F025
:100D300082F828484946002206703846BDE8F04748
:100D400000F0B1B8197882F8008008E022491078E4
:100D50000978884208D2195C00F101001070384609
:100D6000BDE8F04700F00FB9B0D128780028ADD029
:100D70002E703846BDE8F0474FF0010100F051B841
:100D800000540040440003004400002039000020CB
:100D9000E4080020420000203C000020693263206B
:100DA00068616E646C696E6720756E6B6E6F776ECE
:100DB000206576656E74732C206C61746573742085
:100DC000697300003700002040000020430000202D
:100DD000EE08002038000020410000200029018892
:100DE00002D041F4806101E021F48061018070470C
:100DF00002460020938A128B43EA024323F07F428B
:100E0000914300D101207047C94381827047002976
:100E1000018802D041F0010101E021F001010180CF
:100E200070470029018802D041F4807101E021F46B
:100E30008071018070470029018802D041F400715F
:100E400001E021F40071018070470CB502460020DA
:100E500000920A0F21F07F41019202D0009A1432D1
:100E600002E0009A090C1832009212680A4200D07F
:100E700001200CBD10B5034600209A884FF4E064B1
:100E800004EA11449B8A224021F07F410B4202D0A8
:100E9000002A00D0012010BD818A008B41EA004168
:100EA00021F07F407047002A828801D00A4300E089
:100EB0008A438280704700007FB5044680880D46D3
:100EC00020F03F06684600F0A7FC27490298B0FBD7
:100ED000F1F189B20E43A680228822F0010222801D
:100EE000224B2A689A421BD85200B0FBF2F080B223
:100EF000042800D20420491C2184A083208840F0CB
:100F00000100208021884FF6F5300140A8886A89C9
:100F1000104308432080A8892989084320817FBD88
:100F2000EB88A3F53F46FF3E0BD002EBC20303EB79
:100F30000212B0FBF2F080B240F48040020506D00D
:100F400007E002EB4202B0FBF2F080B2F6E740F0BD
:100F500001004FF4967251434FF47A72B1FBF2F1F3
:100F600040F40040C7E7000040420F00A0860100A7
:100F7000008AC0B2704712B141F0010101E001F0F6
:100F8000FE0101827047018270470029018802D06A
:100F900041F4004101E0C1F30E01018070470029D6
:100FA000018803D021F080010180704741F0800169
:100FB000FAE7000070B5384D4FF40034214628465A
:100FC000FFF743FF0028F9D100F0A4FF00215320D0
:100FD00000F064FF272000F07FFF002000F07CFF7E
:100FE00000F0AEFF00F096FF0021532000F056FF06
:100FF0002A2000F071FF002000F06EFF00F0A0FF3B
:1010000000F088FF0021532000F048FF2C2000F062
:1010100063FF0A2000F060FF00F092FF00F07AFF0B
:101020000021532000F03AFF2D2000F055FF08204A
:1010300000F052FF00F084FF00F06CFF002153200D
:1010400000F02CFF2E2000F047FF002000F044FFAE
:1010500000F076FF00F05EFF0021532000F01EFF3D
:10106000312000F039FF4F2000F036FF00F068FF1C
:101070000B489FED0A0A002180ED000A80ED010A6D
:1010800080ED020A80ED060A80ED070A80ED080A6D
:1010900041620448017070BD00540040000000002F
:1010A000840000203400002010B5034800F028FA26
:1010B000BDE8104000F028BAAC0000200A4810B586
:1010C0009FED080A094980ED000A80ED010A80EDD4
:1010D000020A0120087000F00BF8BDE81040FFF78D
:1010E00069BF000000000000B808002035000020A3
:1010F00070B52E4D4FF4003421462846FFF7A5FE6B
:101100000028F9D100F006FF0021692000F0C6FE9A
:101110003E2000F0E1FE802000F0DEFE00F010FF37
:1011200000F0F8FE0021692000F0B8FE162000F063
:10113000D3FE1E2000F0D0FE00F002FF00F0EAFE19
:101140000021692000F0AAFE152000F0C5FE042051
:1011500000F0C2FE00F0F4FE00F0DCFE0021692089
:1011600000F09CFE3E2000F0B7FE032000F0B4FE2D
:1011700000F0E6FE322001F02BFC142001F028FCE8
:101180000C489FED0B0A002180ED030A80ED000A58
:1011900080ED010A80ED020A80ED040A80ED050A67
:1011A00080ED060AC1610448017070BD0054004022
:1011B00000000000C40800203600002070B533484D
:1011C00088B000240470324801210470480500F002
:1011D0000BFB0121022000F0FBFA4FF44070049059
:1011E00002208DF814008DF815000125294E8DF888
:1011F00016508DF8175004A93046FFF72BFC042237
:1012000008213046FFF777FC042209213046FFF71A
:1012100072FC21480090ADF804404BF6FF70ADF829
:101220000600A8031D4EADF80840ADF80C00ADF85F
:101230000A4069463046FFF73FFE01213046FFF77E
:10124000AEFE1F208DF818008DF819508DF81A4049
:101250008DF81B5006A800F089FA20208DF81C009C
:101260008DF81D508DF81E408DF81F5007A800F016
:101270007DFA01213046FFF7CAFD00224FF4E061FC
:101280003046FFF710FE08B070BD000037000020A8
:101290003800002000040240801A0600005400407C
:1012A0001CB50121082000F093FA4FF47040009023
:1012B00001208DF8040003208DF8050000208DF832
:1012C00006008DF8070069460148FFF7C3FB1CBD07
:1012D000000C02403EB519489FED170A012180ED30
:1012E000000A174880ED000A164880ED000A1648EB
:1012F00080ED000A084600F06BFA0121022000F0A0
:1013000067FA0121022000F06FFA5320ADF80000C7
:10131000002044F61F61ADF808000C4CADF8020047
:1013200001918DF80A006946204601F069FA012111
:10133000204601F0B0F83EBD00007A444C00002089
:1013400050000020540000205800002000040040FD
:101350002DE9F04F87B08146DDF8408002208B46B2
:101360008DF818008DF819009A46059205A958467F
:10137000FFF770FB14216846FEF74DFF6020ADF8C3
:1013800000004FF47A7002900120ADF802000020B6
:10139000254FADF80C00B8F1010F09D0B8F1020FDC
:1013A00012D0B8F1030F1BD0B8F1040F24D02EE0F7
:1013B0001E4C1F4D1F4E6946384601F0E5F80821C6
:1013C000384601F011F922E01B4C1C4D1C4E6946B9
:1013D000384601F00FF90821384601F04BF916E0C4
:1013E000184C194D194E6946384601F04DF908213F
:1013F000384601F087F90AE0154C164D164E69463D
:10140000384601F085F90821384601F0B1F9022289
:1014100051465846FFF76FFBC9E90045C9F8086017
:1014200007B0BDE8F08F0000000400401120000864
:1014300081290008691C000841200008952900083E
:10144000751C000871200008A9290008811C0008EB
:10145000A1200008BD2900088D1C000801490020BA
:10146000086070474800002000B585B014228DEC5C
:10147000030A69469FED040A8DED030A8DED040A07
:10148000FEF7B0FE05B000BD0000000010B5114C25
:10149000062340222146104800F09EF80F49002301
:1014A000012208600E490F4800F096F80E49052306
:1014B000202208600D490E4800F08EF80D490E23D9
:1014C0004FF48042086021460B4800F085F80B4934
:1014D000086010BD00040240000800405C000020CD
:1014E00000000240000C004060000020001002409C
:1014F0000040014064000020001800406800002007
:1015000040F60C01FEF787BE30B587B001210420FC
:1015100000F05EF90121C80400F066F91A4D0822B6
:101520000A212846FFF7E7FA08220B212846FFF791
:10153000E2FA02218DF814104FF440608DF8151076
:10154000049000248DF8164001208DF8170004A99E
:101550002846FFF77FFA4FF4E130ADF804400090E1
:10156000ADF80640ADF80840ADF80C400C20074C33
:10157000ADF80A006946204601F0A8F9012120468D
:1015800001F092F907B030BD00080240004C004065
:101590000D4900204FF47A7208600C4908600C492C
:1015A0000968B1FBF2F1491EB1F1807F01D3FEF76A
:1015B000FABD4FF0E0225161064BF02183F8141D73
:1015C00090610720106170476C00002070000020BF
:1015D000000000200FE000E02DE9FF4F594991B0D5
:1015E000924680464FF0010B4FF00209884208D125
:1015F000554C02251E2601212F4684F80890042010
:1016000024E05249884508D1514C01250227322651
:1016100084F808902946082018E04E4988450AD1E8
:101620004D4C012110250327182684F808B0080422
:1016300000F0E6F80FE0494988450AD1484C0225F8
:1016400009272B2684F808900121402000F0CCF8CF
:1016500001E0FEF7A8FD9FED430A434884ED000A30
:1016600084ED010A00F0D8F80121284600F0B0F816
:101670008DF8189003208DF81900CDF814A00025DE
:10168000CA468DF81A50D9468DF81BB005A9129894
:10169000FFF7E0F93A4614991298FFF72CFA4FF445
:1016A0007A70ADF808004FF6FF700390ADF8105057
:1016B000ADF80A508DF8125002A9404601F0A0F88A
:1016C0000121404600F0E7FEADF81C50ADF8209037
:1016D000ADF81E50ADF82250ADF8245007A9404691
:1016E00000F0F3FE0420ADF82800ADF82CA0ADF812
:1016F0002AA0ADF82E50ADF830500AA9404600F0AF
:10170000E4FE5021404601F03DF80421404601F03E
:1017100047F88021404601F03BF80122114640463F
:1017200000F029FF8DF838608DF839508DF83A9027
:101730008DF83B900EA800F019F815B02046BDE8D2
:10174000F08F000000080040F8080020000C004066
:10175000040900200040014010090020001800404A
:101760001C090020000000002809002030B50F22CD
:10177000C47801780123FCB1144C246801F1E02104
:1017800004F4E064C4F5E064C4F30724C4F1040580
:10179000E2404478AC408578154025432A0181F821
:1017A0000024007800F01F018B404009800000F108
:1017B000E020C0F8003130BD01F01F00834048092F
:1017C000800000F1E020C0F8803130BD0CED00E079
:1017D000044A0029116801D0014300E081431160EF
:1017E0007047000030380240044A0029116801D0D7
:1017F000014300E08143116070470000403802401F
:10180000044A0029116801D0014300E081431160BE
:10181000704700004438024070B5204A1168204CDF
:1018200011F00C0104D01F4E042903D0082903D065
:1018300004601BE0066019E01849091F0B68C3F338
:1018400080550B6803F03F0315B1B6FBF3F301E0DD
:10185000B4FBF3F30C680968C4F388146343C1F361
:101860000141491C4900B3FBF1F1016011680F23EC
:1018700003EA11110C4B5C5C0168E14041601468A3
:10188000072505EA94241C5D21FA04F4846012689B
:1018900005EA52329A5CD140C16070BD08380240FE
:1018A0000024F40040787D01140000202DE9F0416F
:1018B00066482DED088B007800287DD1644D28788E
:1018C00000287AD06348027846788478C178037912
:1018D000407942EA062243EA002012B244EA01219A
:1018E00006B20FB21046FEF730FE9FED5B9B53EC45
:1018F000192BFEF749FDFEF74CFE594C08EE900AF5
:101900003846C4ED038AFEF720FE53EC192BFEF790
:101910003BFDFEF73EFE08EE100A304684ED048AD9
:10192000FEF713FE53EC192BFEF72EFDFEF731FEEA
:1019300000EE100A84ED050AD4ED060A78EEE08A7E
:10194000D4ED070A38EE608AD4ED080A30EE600A5A
:1019500068EEA80A68EE089A20EE009A30EE890A2E
:1019600010EE100AFEF702FE41EC100B01F044FAF3
:10197000B0EE40AAF0EE60AA18EE100AFEF7F6FDEF
:1019800053EC1A2BFEF772FD41EC100B01F0C8F876
:101990009FED34AB51EC100B53EC1A2BFEF7F4FC1B
:1019A0009FED32BB53EC1B2BFEF760FDFEF7F1FD04
:1019B000074639EE890A01E044E02BE010EE100AF8
:1019C000FEF7D4FD41EC100B01F016FAB0EE409A90
:1019D000F0EE609A18EE900AFEF7C8FD53EC192B52
:1019E000FEF744FD41EC100B01F09AF853EC1A2B72
:1019F00051EC100BFEF7C8FC53EC1B2BFEF736FD29
:101A0000FEF7C7FD06469FED1B8A384601F070F8C9
:101A100038B115E006223221532000F067F801208A
:101A20000FE0304601F064F850B9002001F060F892
:101A300030B9C4E9007684ED028A606A401C6062B5
:101A400000202870BDEC088BBDE8F0813800002034
:101A500034000020EE080020DE718A8EE4F26F3F31
:101A600084000020000000000080664000000000AC
:101A7000FB2109400000000070B51648164D174EB6
:101A8000007840B100202870307000F079F9BDE88E
:101A90007040FFF793BB124C207818B100F058F853
:101AA000307802E0FFF702FF287818B9207880F03C
:101AB000010020700B480C4990ED000A81ED000AEE
:101AC00090ED010A81ED010A90ED020A81ED020A12
:101AD00070BD0000370000203400002036000020D8
:101AE0003500002084000020B80800202DE9F041D6
:101AF0000F4E14460D46074601224FF4E061304672
:101B0000FFF7D1F90B4801230E4907700A4803700B
:101B10000A4803700A480470002008600A48194601
:101B200003700A4805703046BDE8F041FFF779B907
:101B30000054004040000020380000203900002000
:101B4000430000203C00002041000020E408002069
:101B50002DE9F0413A482DED048B007800286BD137
:101B6000384D2878E8B3384890F800C04478877832
:101B700044EA0C2424B243F2903C64444FF48C7C3D
:101B800094FBFCF4233400EE104AC6782F4CB8EED8
:101B9000C00A037942798179C07946EA072684ED43
:101BA000030A36B200EE106A42EA032212B2B8EE1D
:101BB000C01A9FED270A40EA012000B2C1EE000AD8
:101BC00094ED041A30EEC19A00EE902AB8EEE01AB5
:101BD000C1EE000A94ED051A70EEC18A00EE900A7B
:101BE00000E00DE0F8EEE00A19EE100A80EE801A2F
:101BF00094ED060A31EE408A00F080FF38B119E01A
:101C000008221B216920FFF771FF012013E018EE65
:101C1000900A00F073FF68B918EE100A00F06EFF2A
:101C200040B984ED009AC4ED018A84ED028AE0692E
:101C3000401CE06100202870BDEC048BBDE8F08101
:101C40003800002036000020EE080020C4080020E4
:101C50000000664103480068D0ED010A90ED000ADB
:101C6000FEF70CBE5C000020014890ED000A7047B2
:101C70004C000020014890ED000A70475000002001
:101C8000014890ED000A704754000020014890ED93
:101C9000000A70475800002070B504462DED028BF5
:101CA000B0EE408A0D46532000F0CCFE204600F0F6
:101CB000C9FE284600F0C6FE9FED0E0A28EE000A77
:101CC000BDEEC00A10EE100A010EC0F30744C0F3C7
:101CD0000725C6B2084600F0B5FE204600F0B2FE69
:101CE000284600F0AFFEBDEC028B3046BDE87040E8
:101CF00000F0A8BE0024744970B5054614460E468F
:101D0000532000F09FFE284600F09CFE304600F075
:101D100099FE200EC4F30746C4F30725E4B200F091
:101D200091FE304600F08EFE284600F08BFE2046E5
:101D3000BDE8704000F086BE10B5044603A000F078
:101D400099FE2046BDE8104000F094BE696E666FB3
:101D50002E6572722D3A453A0000000010B5044617
:101D600003A000F087FE2046BDE8104000F082BED0
:101D7000696E666F2E7761726E3A573A0000000006
:101D80002DE9FF4125A001F0A5FE294C00224FF4CA
:101D9000E0612046FFF787F801212046FFF7F5F8BC
:101DA00000212046FFF7F1F800214FF40010FFF763
:101DB0001BFD01210220FFF70BFD01208DF804001F
:101DC00003278DF8057000261A4DA4158DF80660BE
:101DD00000948DF8076069462846FEF73BFE6000D8
:101DE0008DF80C6002908DF80D708DF80F6002A9CF
:101DF0002846FEF72FFE00F0F1FD21462846FEF7AB
:101E00008CFE00F0EBFD21462846FEF784FE00F034
:101E1000E5FD761C0A2EF0DBBDE8FF815265736597
:101E20007474696E67204932432062757300000044
:101E3000005400400004024000B50246D0F80808F3
:101E4000002802DC4FF6FF7000BDD2F804084FF402
:101E5000806132F8103001F001FEC2F80408D2F8B7
:101E60000808401EC2F80808184600BD00B5024622
:101E7000D0F808084FF4806398420EDAD2F80008D0
:101E800022F81010D2F80008194602F5006201F09D
:101E9000E5FD10609068401C906000BD70B50C4678
:101EA0000949097800290ED1084D014622462846E5
:101EB000FFF761F82CB106492846BDE8704000F0F4
:101EC00093BD0449F8E770BD37000020005400407E
:101ED000020003008200070070B504460A4800783B
:101EE00000280FD10A4D0949284600F07DFD214602
:101EF0002846FFF748F82846BDE870400349091D09
:101F000000F072BD70BD00003700002080000700A7
:101F10000054004010B507490020074C087001210B
:101F20002046FEF77EFF2046BDE81040034900F042
:101F30005BBD00003700002000540040010003009A
:101F400004480078002803D101210348FEF773BF3D
:101F50007047000037000020005400400CB50020FE
:101F60002749019000900A6842F480320A604FF4D9
:101F7000A0430A6802F400320092019A521C0192B6
:101F8000009A12B9019A9A42F3D10A68920334D5A1
:101F9000012000901A484030026842F080520260EE
:101FA0001848026842F4404202601548083002684E
:101FB0000260026842F400420260026842F4A052E9
:101FC0000260031F104A1A600A6842F080720A60B9
:101FD0000A689201FCD50D4A40F205711160016852
:101FE00021F003010160016841F002010160016814
:101FF000C1F381010229FAD10CBD00900CBD000093
:10200000003802400070004019544007003C024074
:1020100010EE100A07490844B0F5000F08D806482A
:10202000064980ED000ABCEEC00A10EE100A0860F6
:1020300070470000000086BB4C00002034040040C4
:1020400010EE100A07490844B0F5000F08D80648FA
:10205000064980ED000ABCEEC00A10EE100A0860C6
:1020600070470000000086BB50000020380400408C
:1020700010EE100A07490844B0F5000F08D80648CA
:10208000064980ED000ABCEEC00A10EE100A086096
:1020900070470000000086BB540000203C04004054
:1020A00010EE100A07490844B0F5000F08D806489A
:1020B000064980ED000ABCEEC00A10EE100A086066
:1020C00070470000000086BB58000020400400401C
:1020D00009490868401C08604FF47A71B0FBF1F2BE
:1020E00001FB120119B905490A68521C0A60401C1B
:1020F00001D1FEF758B87047700000206C00002036
:10210000124810B5016841F470010160104801687F
:1021100041F0010101600E4A00210832116002689D
:102120000C4B1A400260031D0B4A1A60026822F42D
:102130008022026006480C300160FFF70FFF034960
:102140004FF000608039086010BD000088ED00E0AD
:1021500000380240FFFFF6FE1030002470B5048CFA
:1021600024F001040484058B048C4FF6FF7606EA04
:102170000313134325F0F3052B4324F00A020A430B
:1021800042F001010383018470BDF0B5048C24F09A
:1021900010040484078B068C4FF6FF7404EA0115C3
:1021A00027F4734704EA0331394304EA02220A435D
:1021B00026F0A001294341F0100102830184F0BD03
:1021C00070B5284D01212DED028B284600F071F9E4
:1021D000002844D00121284600F05AF9284600F092
:1021E00064F90446284600F062F9054600EE105AEC
:1021F000DFED1D0A1D48B8EE400A1D4E406860EE36
:10220000200A00EE104A317AB8EE400AB0FBF1F134
:10221000C0EE808A4FF47A706043B1FBF0F000EEBC
:10222000100AB8EE408A18EE900A00F073FC0028FD
:1022300015D118EE100A00F06DFC00280FD1F5EE54
:10224000C08AF1EE10FA0AD9B5EEC08AF1EE10FAA2
:1022500005D9AC4203D0C6ED008A86ED018ABDECFB
:10226000028B70BD004001400000C84228090020D8
:102270001009002070B5284D01212DED028B284654
:1022800000F017F9002844D00121284600F000F999
:10229000284600F00AF90446284600F008F90546E9
:1022A00000EE105ADFED1D0A1D48B8EE400A1D4E23
:1022B000406860EE200A00EE104A317AB8EE400A1B
:1022C000B0FBF1F1C0EE808A4FF47A706043B1FB4D
:1022D000F0F000EE100AB8EE408A18EE900A00F016
:1022E00019FC002815D118EE100A00F013FC002884
:1022F0000FD1F5EEC08AF1EE10FA0AD9B5EEC08A18
:10230000F1EE10FA05D9AC4203D0C6ED008A86ED95
:10231000018ABDEC028B70BD000800400000C8427D
:1023200028090020F808002070B5284D01212DED66
:10233000028B284600F0BDF8002844D00121284631
:1023400000F0A6F8284600F0B0F80446284600F051
:10235000AEF8054600EE105ADFED1D0A1D48B8EE36
:10236000400A1D4E406860EE200A00EE104A317AA5
:10237000B8EE400AB0FBF1F1C0EE808A4FF47A70FB
:102380006043B1FBF0F000EE100AB8EE408A18EEA0
:10239000900A00F0BFFB002815D118EE100A00F0DB
:1023A000B9FB00280FD1F5EEC08AF1EE10FA0AD978
:1023B000B5EEC08AF1EE10FA05D9AC4203D0C6EDF5
:1023C000008A86ED018ABDEC028B70BD000C0040D6
:1023D0000000C842280900200409002070B5284DDB
:1023E00001212DED028B284600F063F8002844D02F
:1023F0000121284600F04CF8284600F056F8044623
:10240000284600F054F8054600EE105ADFED1D0A8C
:102410001D48B8EE400A1D4E406860EE200A00EEEE
:10242000104A317AB8EE400AB0FBF1F1C0EE808A72
:102430004FF47A706043B1FBF0F000EE100AB8EE92
:10244000408A18EE900A00F065FB002815D118EEBE
:10245000100A00F05FFB00280FD1F5EEC08AF1EE04
:1024600010FA0AD9B5EEC08AF1EE10FA05D9AC42DD
:1024700003D0C6ED008A86ED018ABDEC028B70BDEB
:10248000001800400000C842280900201C09002054
:10249000C943018270470029018802D041F001013F
:1024A00001E021F0010101807047406B7047806BB3
:1024B000704702460020138A92890B4202EA010209
:1024C00002D0002A00D0012070472DE9F0410D46CE
:1024D0000E884988AA882B89044616B3042E28D072
:1024E000082E268C4FF6FF702BD026F480562684BB
:1024F000A78B268C00EA022200EA013127F47347F9
:102500003A4300EA0330104326F420420A4342F4DF
:102510008051A0832184E9882046BDE8F04100F085
:1025200063B9FFF71BFEE9882046BDE8F04100F0E3
:102530003FB9FFF72AFEE9882046BDE8F04100F0E8
:102540003FB926F480762684A78B268C00EA0121E9
:1025500000EA0310104327F0F307384326F4206203
:102560000A4342F48071A0832184E9882046BDE8B3
:10257000F04100F031B9002A828901D00A4300E01D
:102580008A4382817047000030B5028C22F001023C
:102590000284028C8388048B22F0020224F07305EB
:1025A0000C882C438D8915434A882A430C4DA84238
:1025B00002D00C4DA8420DD122F00805CA8923F49F
:1025C00040732A4322F004058A882A430D8A1D435A
:1025D0004B8A2B438380048389684163028430BD26
:1025E0000000014000040140028B22F008020A436F
:1025F0000283704770B5028C22F010020284028CB4
:102600008488038B0D8823F4E6464FF6FF7303EAB4
:10261000052535438E8922F0200203EA061616436B
:102620004A8803EA02123243104EB04202D0104EE2
:10263000B04215D122F08006CA8924F4406403EA2E
:102640000212324322F040068A8803EA0212324321
:102650000E8A03EA860626434C8A03EA840434433E
:102660008480058389688163028470BD0000014015
:1026700000040140028B4FF6FF7322F4006203EA6C
:10268000012111430183704770B5028C22F48072DE
:102690000284028C8488838B0D8823F073031D438E
:1026A00022F400738E894FF6FF7202EA06261E435B
:1026B0004B8802EA03233343104EB04202D0104E3F
:1026C000B04215D123F40066CB8924F4405402EAC9
:1026D0000323334323F480668B8802EA03233343C6
:1026E0000E8A02EA061626434C8A02EA0414344390
:1026F000848085838968C163038470BD00000140C4
:1027000000040140828B22F008020A438283704752
:1027100070B5028C22F480520284048C8288838BF0
:102720000D8823F4E6464FF6FF7303EA052535438B
:1027300024F400568C8903EA043434434E8803EAB7
:1027400006362643084CA04202D0084CA04205D1D0
:1027500022F480440A8A03EA82122243828085831B
:1027600089680164068470BD0000014000040140D6
:10277000828B4FF6FF7322F4006203EA01211143BA
:1027800081837047028922F070020A4302817047F8
:10279000028922F08002028102890A430281704785
:1027A000028922F00702028102890A4302817047EE
:1027B000028B22F00C020283028B0A4302837047D1
:1027C000028B22F440620283028B4FF6FF7303EA0E
:1027D00001210A4302837047828B22F00C0282831C
:1027E000828B0A4382837047828B22F44062828309
:1027F000828B4FF6FF7303EA01210A4382837047FD
:1028000030B50288164B174C98420DD0A0420BD021
:10281000B0F1804F08D0144DA84205D0134DA84206
:1028200002D0134DA84203D122F070054A882A43F2
:10283000104DA84206D0104DA84203D022F4407596
:102840000A892A4302804A68C2620A88028598423D
:1028500001D0A04201D1897A01860121818230BD57
:102860000000014000040140000400400008004056
:10287000000C0040001000400014004003490968AB
:102880000A680B689B1A8342FBD370472400002020
:1028900001490880704700001A0C02400149088075
:1028A00070470000180C02400029818902D041F4D1
:1028B000005101E021F4005181817047024600205F
:1028C00012880A4200D00120704700007FB50446FC
:1028D000008A0D4620F44051E88808432082A089F0
:1028E00041F20C618843A9882A8911436A8902430D
:1028F0001143A181A08A20F44071A8890843A082D5
:102900006846FEF789FF1A48844202D0194884427B
:1029100001D1039800E00298A189090400EBC001ED
:1029200001EB0010296801D5490000E08900B0FBE7
:10293000F1F26420B2FBF0F109010B096FF0180508
:102940006B4302EB8302A3891D044FF0320306D5CB
:1029500003EBC202B2FBF0F000F0070005E003EB6E
:102960000212B2FBF0F000F00F00084320817FBD9F
:102970000010014000140140C1F30801818070473C
:102980000348D0ED000A30EE800AFFF741BB00009B
:102990004C0000200348D0ED000A30EE800AFFF71B
:1029A0004FBB0000500000200348D0ED000A30EE7D
:1029B000800AFFF75DBB0000540000200348D0ED03
:1029C000000A30EE800AFFF76BBB000058000020C1
:1029D00001494843FFF752BF007102000148FFF769
:1029E0004DBF0000007102002DE9F0410E46074680
:1029F000002441F2883500E0641C31463846FEF779
:102A0000F7F908B9AC42F7DBAC4206D1314604A075
:102A100001F02AF80A4901200870BDE8F0810000A1
:102A2000676176652075702077616974696E6720CB
:102A3000666F7220493243206576656E740000002F
:102A40003700002001460148FFF710BAAC00002013
:102A500070B5074C054680212046FFF72FFF002860
:102A6000F9D029462046BDE87040FFF785BF000039
:102A7000004C004010B5044603E00448641CFFF716
:102A8000F5F921780029F8D110BD0000AC00002034
:102A90000FB41CB50246002007AC00290BD0491E1C
:102AA000CDE90021054B6A462146069800F08EFAD2
:102AB000009A002111701CBC5DF814FB2F34000833
:102AC00003B401984100009850EAC12018BF0420C7
:102AD0004A0D18BF40F0010040F2FF72B2EB515FA7
:102AE00008BF40F00200012808BF052002B070476F
:102AF00020F00040C0F1FF40C00F704720F00040C0
:102B0000C0F1FF40C00F704720F00040C0F1FF400F
:102B1000C00F704720F00040C0F1FF40C00F704769
:102B200070B59B482DED020B2DED068B079D25F012
:102B30000044A04218DC9748844202DC0AD106987F
:102B400040B19DED060BBDEC068B02B0BDE87040B8
:102B500000F00BBA002DCCBF9FED8F0B9FED900BBB
:102B6000BDEC068B02B070BD8F48A04215DD8F48CA
:102B7000A042D8BF4FF0FF3458DD9DED060B51EC5D
:102B8000100BFFF79DFF042808BF00F0F9F99DED39
:102B9000060BBDEC068B02B070BD9DED060B51EC33
:102BA000100B00F04FFCCDE9060181489FED828BB0
:102BB000A0423CDD8248A0421FDD00249FED82AB95
:102BC0009DED060B53EC1A2B51EC100BFDF735FB6A
:102BD0009DED060B41EC190B53EC1A2B51EC100B2D
:102BE000FDF7D2FB53EC182BFDF7C8FB53EC192B68
:102BF000FDF73CFCCDE9060149E09DED060B012403
:102C000053EC182B51EC100BFDF717FB9DED060B49
:102C100041EC190B53EC182B51EC100BFDF7AEFBEC
:102C200053EC192BFDF722FCCDE906012FE0684893
:102C3000A0421FDD02249FED689B9DED060B53EC27
:102C4000192B51EC100BFDF79FFB53EC182BFDF7E4
:102C5000F4FA9DED060B41EC180B53EC192B51ECDB
:102C6000100BFDF78BFB53EC182BFDF7FFFBCDE9A9
:102C700006010CE09DED060B032453EC102B9FED99
:102C8000580B51EC100BFDF7F1FBCDE906019DED62
:102C9000060B53EC102B51EC100BFDF775FB41ECC0
:102CA000180B53EC182BFDF76FFB41EC190B4E483A
:102CB0000621B0EE490AF0EE690A784400F0D9F82E
:102CC00053EC182B51EC100BFDF75EFB41EC180B8D
:102CD0004648B0EE490AF0EE690A0521784400F052
:102CE000C8F853EC192B51EC100BFDF74DFB41ECE0
:102CF000100B51EC180B53EC102B002C0EDAFDF7D7
:102D00009CFA9DED061B53EC112BFDF73DFB9DED51
:102D1000061B53EC112BFDF734FB35E0FDF78DFA64
:102D20009DED061B53EC112BFDF72EFB41EC100B18
:102D30002F48784400EBC40090ED001B51EC100BC1
:102D400053EC112BFDF71AFB9DED061B53EC112BD9
:102D5000FDF714FB41EC100B2648784400EBC4004F
:102D600090ED001B51EC100B53EC112BFDF709FB00
:102D700041EC100B002DA2BFBDEC068B02B070BD64
:102D800051EC100B81F0004141EC100B01E7000009
:102D9000000010440000F07F182D4454FB21F93F3F
:102DA000182D4454FB21F9BF0000DC3F0000203EF9
:102DB0000000F33F00000000000000000000F03FB2
:102DC0000000E63F0000000000000000000000409E
:102DD0000080034000000000000000000000F83FF9
:102DE000000000000000F0BF520F0000080F0000BC
:102DF000920E00004A0E000000B52DED048BB0EEDF
:102E0000409AF0EE609A83B051EC190BFDF7C3FCC9
:102E100041EC180B18EE100A18EE901A8DED008B8D
:102E2000002818BF0120084320F00040C0F17F6057
:102E300000F1E040C00F14D019EE101A19EE900AFC
:102E40008DED009B002918BF0121084320F00040B0
:102E5000C0F17F6000F1E040C00F04BF012000F02E
:102E6000AFF8B0EE480A03B0F0EE680ABDEC048B90
:102E700000BD70B504462DED028B4D1E00EBC50064
:102E8000B0EE408AF0EE608A90ED000B35F006005F
:102E900017D053EC182B51EC100BFDF775FA41ECE1
:102EA000100B6D1E04EBC50090ED001B51EC100BD8
:102EB00053EC112BFDF7C1F941EC100B35F0060076
:102EC000E7D1022D36D0042D1CD0062D1CBFBDEC41
:102ED000028B70BD53EC182B51EC100BFDF754FA1C
:102EE00094ED0A1B53EC112BFDF7A7F953EC182BAB
:102EF000FDF74AFA94ED081B53EC112BFDF79DF9F1
:102F000041EC100B53EC182B51EC100BFDF73CFA75
:102F100094ED061B53EC112BFDF78FF953EC182B96
:102F2000FDF732FA94ED040B53EC102BFDF785F905
:102F300041EC100B53EC182B51EC100BFDF724FA5D
:102F400094ED021B53EC112BFDF777F953EC182B82
:102F5000FDF71AFA94ED001B53EC112BFDF76DF9F8
:102F6000BDEC028B41EC100B70BD10B553EC102B77
:102F700051EC100BFDF761F941EC100B10BD000096
:102F80009FED050B10B553EC102B51EC100BFDF71A
:102F9000FBF941EC100B10BD000000000000001018
:102FA00002E008C8121F08C1002AFAD17047704712
:102FB000002001E001C1121F002AFBD17047000070
:102FC0000149086070470000800000202DE9FF4F94
:102FD0008DB00F460546002606E025280BD0DDE91A
:102FE0000F1290476D1C761C28780028F5D111B07F
:102FF0003046BDE8F08F0024A246A1460122EC49EC
:1030000000E0044315F8013F203B02FA03F00842B8
:10301000F7D128782A2810D06FF02F022878A0F155
:103020003001092914D80AEB8A0102EB410144F06E
:10303000020400EB010A6D1CF0E701CF5FEA000A11
:1030400003D544F40054CAF1000A44F002046D1C94
:1030500028782E2817D115F8010F44F004042A28E7
:103060000ED06FF02F022878A0F1300109290AD87C
:1030700009EB890102EB410100EB01096D1CF2E74C
:1030800057F8049B6D1C28786C280FD006DC4C2860
:1030900017D068280DD06A2814D104E0742810D005
:1030A0007A280FD10DE044F400140AE044F48014AF
:1030B00001E044F440146978814202D104F580149F
:1030C0006D1C6D1C2A786E2A1FD00CDC632A31D04F
:1030D00004DC002A8BD0582A11D1A3E0642A68D0DE
:1030E000692A0CD165E0732A2ED004DC6F2A73D0D4
:1030F000702A04D19BE0752A6FD0782A6ED01046D2
:10310000DDE90F129047761C50E1C4F3025002280B
:1031100006D0032809D0042801CF09D0066045E174
:1031200001CFF117C0E9006140E101CF06803DE128
:1031300006703BE117F8040B8DF8000000208DF8B5
:103140000100EB46012003E057F804BB4FF0FF30CD
:1031500061074FF0000102D40DE008F1010188463B
:1031600049450FDA8045F8DB1BF808100029F4D137
:1031700008E008F1010188468142FADB1BF80810DB
:103180000029F6D1DDE90F23AAEB0800814621468C
:1031900000F036F9304400EB080604E0DDE90F12D8
:1031A0001BF8010B9047B8F10108F7D221464846B9
:1031B000F7E00A21C4F302534FF0000B0891022BF1
:1031C00004D001CFC117032B09D00AE0FF1D27F05F
:1031D0000707F7E8020108E032E01FE020E000B254
:1031E000C117042B01D140B2C117031E71F10003B6
:1031F00007DA4FF0000CD0EB0C006CEB01012D2333
:1032000002E0230504D52B238DF82430012303E0AD
:10321000E30701D02023F7E7984658E00A2110E0A1
:1032200010210EE010204FF0000B08900CE0102150
:103230004FF0000B44F004044FF00809089103E03C
:1032400008214FF0000B0891C4F30253022B04D065
:1032500001CF0021032B06D006E0FF1D27F0070752
:10326000F7E8020103E080B2042B00D1C0B24FF0B6
:10327000000823072BD5702A07D0DDF820C08CF07A
:10328000100C5CEA0B0C05D00EE040238DF82430C6
:10329000012308E050EA010306D030238DF82430E2
:1032A0008DF8252002239846DDF820C08CF0080C0C
:1032B0005CEA0B0C0BD150EA010301D1630706D580
:1032C00030238DF824304FF00108A9F10109582A64
:1032D00004D038A20B9208AA0A920BE03AA2F9E7AE
:1032E0005B46089AFDF771F90B9B9B5C0A9A521E8C
:1032F0000A92137050EA0102F2D10A98ADEB000075
:1033000000F1200B600702D524F4803401E04FF077
:103310000109D94502DDA9EB0B0000E0002000EB1C
:103320000B0141440890AAEB010AE00306D4DDE951
:103330000F232146504600F063F806444FF0000981
:1033400008E009A911F80900DDE90F12904709F119
:103350000109761CC145F4DBE0030CD5DDE90F2340
:103360002146504600F04CF8064404E0DDE90F1217
:1033700030209047761C0899481E08900029F5DCFB
:1033800008E00A980A990078491C0A91DDE90F12B1
:103390009047761CBBF10001ABF1010BF1DC21463B
:1033A0005046DDE90F2300F019F806446D1C1BE6BA
:1033B000092801003031323334353637383961620B
:1033C00063646566000000003031323334353637CF
:1033D0003839414243444546000000002DE9F041A0
:1033E000044600251E461746880404D405E03946E5
:1033F0002020B0476D1C641EF9D52846BDE8F08139
:103400002DE9F041044600251E469046C80301D52B
:10341000302700E02027880404D505E041463846DF
:10342000B0476D1C641EF9D52846BDE8F0814A6896
:10343000002A06D00A68531C0B6010704868401EB2
:103440004860704782B0CDE9000121F00040019052
:103450009DED000B02B051EC100B704710B5002829
:1034600021D0114B0022001F196803E0814203D8CC
:103470000A4649680029F9D152B11368841A9C425E
:1034800004D1006818441060104602E0506000E06B
:10349000186039B102680B1A934203D10B681A44C1
:1034A00002604968416010BD780000202DED0E8B50
:1034B00098B0FDF793FAFDF7F3FEFDF7CFFF4FF459
:1034C00000542046FFF7EAF9FEF762F8FDF7ECFD3D
:1034D000FDF700FFFEF754FCFDF770FEDFEDFEEA9E
:1034E000B0EE080A01A8B0EE6E1AF0EE6E0AFDF713
:1034F000BBFFB0EE6E1AF0EE6E0AB0EE080A12A82C
:10350000FDF7B2FFFDF7C2FF0421F44E0091012345
:103510000222314606A8FDF71BFF0220F04D009065
:1035200007238022294609A8FDF712FF03220092F3
:103530000023012231460CA8FDF70AFF0122009268
:103540000623402229460FA8FDF702FFFDF7B6FD2E
:103550002046FFF79DF96010FFF7A0F900242546EB
:103560009FEDE0BA0698B0EE4B0A80470998B0EE9E
:103570004B0A80470C98B0EE4B0A80470F98B0EE8C
:103580004B0A8047D84E00BFFEF764FB3068A84264
:1035900027D924B1012C09D0022C0FD021E0B5EE9F
:1035A000C00AF1EE10FA1CD1012405E010EE101A49
:1035B000CE4A914249D10224054646E0B5EEC00A02
:1035C000F1EE10FA41D103244FF480503568FFF733
:1035D0005FF94FF40040FFF761F90A20FFF7F8F9AF
:1035E00004E00A20FFF7F4F9032CCDD10027B846F8
:1035F0009FEDBFCADFEDBFCADFEDBFBADFF8FCB297
:103600007F1CBFB2FEF738FAFEF724FBF0EE40AAAB
:10361000B0EE6E0A032CB0EE409AF0EE409AB0EE97
:1036200040AAB0EE40DAF0EE40DAB0EE40EAF0EE5A
:10363000408AB0EE408A2BD03068A84204D944B109
:10364000012C0DD0022C13D0EFE00A20FFF7C0F9B7
:103650009AE7F5EEC0AAF1EE10FA08D1012405E0D0
:103660001AEE902AA1498A4201D102240546DCE0E3
:10367000F5EEC0AAF1EE10FA09D1054603244FF485
:103680008050FFF705F94FF40040FFF707F9CCE051
:103690009BED001AB0EE408A01A8F0EE480AB0EEA9
:1036A000410AFDF753F9F0EE408A9BED010AF0EE76
:1036B000480A12A8FDF74AF918EE901A9048B0EEA1
:1036C000408A814202D9F0EE4C8A06E018EE901A48
:1036D000864A914201DDF0EE6C8A18EE101A8142A2
:1036E00002D9B0EE4C8A06E018EE100A7F498842F3
:1036F00001DDB0EE6C8AF5EEC0AAF1EE10FA0FD142
:103700000698B0EE4B0A80470998B0EE4B0A804706
:103710000C98B0EE4B0A8047B0EE4B0A0F9883E04E
:103720001AEE900AFCF722FF9FED761B53EC112B4B
:10373000FCF724FE9FED751B53EC112BFCF724FEC8
:103740009FED741B53EC112BFCF777FDFCF721FF69
:1037500009EE100AF0EE6B0AB0EE4B0A79EE082A79
:1037600039EE482A79EE281A39EE681AF4EEE02A82
:10377000F1EE10FA01D2F0EE620AF4EEC02AF1EE98
:1037800010FA01DDB0EE620AB4EEE02AF1EE10FAB2
:1037900001D2F0EE420AB4EEC02AF1EE10FA01DDD9
:1037A000B0EE420AF4EEE01AF1EE10FA01D2F0EEB9
:1037B000610AF4EEC01AF1EE10FA01DDB0EE610A12
:1037C000B4EEE01AF1EE10FA01D2F0EE410AB4EED6
:1037D000C01AF1EE10FA01DDB0EE410A10EE900AC7
:1037E0004E49884202DA7BEE609A06E010EE100A3B
:1037F0004B49884201DD7BEEC09A069832EEA9AAB9
:1038000032EE29DA71EEA9DA31EE29EAB0EE4A0A8F
:1038100080470998B0EE4D0A80470C98B0EE6D0ACB
:1038200080470F98B0EE4E0A80473168884552D0E5
:10383000FCF7C6FCC0B28246014600203268FEF7A3
:103840005BFA3A4651460120FEF756FADFF8AC80A3
:10385000514608F10C08022098ED000AFEF71CFA08
:1038600098ED010A51460320FEF716FA98ED020A78
:1038700051460420FEF710FA98ED030A5146052040
:10388000FEF70AFA51460620D8F81C20FEF734FA53
:10389000B0EE4A0A51461220FEF7FEF9B0EE4D0A8C
:1038A00051461320FEF7F8F9B0EE6D0A5146142088
:1038B000FEF7F2F9B0EE4E0A51461520FEF7ECF98C
:1038C000B0EE680A51460E20FEF7E6F9B0EE480A5F
:1038D00051460F2026E07DE0000000000004024079
:1038E0000000024000007A446C0000200000C84242
:1038F0000000C8C20000C8420000FA44B808002016
:103900000000C8C2000000000000494000000000A4
:1039100000002440000000000030914000007A4484
:103920000000FA44FEF7B8F99DED010A5146102057
:10393000FEF7B2F9B0EE6A0A51461120FEF7ACF973
:10394000A8F50469514699ED000A0720FEF7A4F98D
:1039500099ED010A51460820FEF79EF999ED020AF9
:1039600051460920FEF798F951460A20D9F824203B
:10397000FEF7C2F95F469BED000A51460B20FEF7A9
:103980008BF997ED010A51460C20FEF785F997ED6A
:10399000020A51460D20FEF77FF9A8F6180051469D
:1039A000D0F808281620FEF7A7F9B0EE490A5146CC
:1039B0001720FEF771F9B0EE690A51461820FEF79C
:1039C0006BF90027C9F82470C8F81C70D6F800807D
:1039D000FCF7F0FF72684FF47A70B2FBF0F100FB75
:1039E0001120C828BFF40CAEFDF720F808E600004F
:1039F000F0B50B30154D20F007010024144A0FE0FC
:103A000003688B420BD38B4205D95E1A4318476873
:103A1000C3E9006700E04368136002C004E0021DD0
:103A200010680028ECD12046002802D1286808B18F
:103A30000020F0BD064A07481060074A121A22F01B
:103A40000702C0E9002401202860D7E77C0000209D
:103A5000780000203C090020380B0020401C8842E0
:103A600000D3002070470000F8B506460D464FF41D
:103A70008040FEF713FF00212B4610A20846FFF7F7
:103A800007F804463046FCF7D1FB0444641C20468A
:103A9000FFF7AEFF074633460BA221460095FEF71F
:103AA000F7FFFCF7B1FF3846FEF746F9FCF7ACFF2D
:103AB0003846BDE8F840FFF7D1BC0000205B307805
:103AC00025785D7C000000002573205B3078257828
:103AD0005D7C000070B505464FF40050FEF7DEFE39
:103AE0000E480F490068401D08602846FCF79EFB01
:103AF000801C0446FFF77CFF06462B4609A22146A0
:103B0000FEF7C6FFFCF780FF3046FEF727F9FCF70B
:103B10007BFF3046BDE87040FFF7A0BC6C00002082
:103B20004800002025737C00F8B506460D464FF48A
:103B30000050FEF7B3FE134813492B46006813A24A
:103B4000401D086000210846FEF7A2FF04463046EB
:103B5000FCF76CFB0444641C2046FFF749FF074652
:103B600033460DA221460095FEF792FFFCF74CFF6D
:103B70003846FEF7F3F8FCF747FF3846BDE8F84053
:103B8000FFF76CBC6C00002048000020205B307800
:103B900025785D7C000000002573205B3078257857
:103BA0005D7C0000000000004FBB610567ACDD3F9D
:103BB000182D4454FB21E93F9BF681D20B73EF3F54
:103BC000182D4454FB21F93FE2652F227F2B7A3CCC
:103BD000075C143326A6813CBDCBF07A8807703C85
:103BE000075C143326A6913CC4EB98999999C9BFF8
:103BF000711623FEC671BCBF6D9A74AFF2B0B3BF2D
:103C00009AFDDE522DDEADBF2F6C6A2C44B4A2BFEC
:103C10000D5555555555D53FFF8300922449C23F58
:103C20006E204CC5CD45B73F513DD0A0660DB13F8C
:103C3000EB0D76244B7BA93F11DA22E33AAD903F9E
:103C4000603C00080000002084000000A02F000855
:103C5000E43C000884000020B40E0000B02F0008EF
:103C6000007A030A000000000000000001020304C3
:103C70000607080900000000010203040102030412
:103C800006070809041000E0001000E0FCED00E069
:103C90000000000000000000000000000000000024
:103CA0000000000000000000000000000000000014
:103CB0000000000000000000000000000000000004
:103CC00000000000000000000000000000000000F4
:103CD00000000000000000000000000000000000E4
:043CE00000000000E0
:040000050800018965
:00000001FF
