:020000040800F2
:10000000100400209D010008A5010008A7010008B8
:10001000A9010008AB010008AD01000800000000C4
:10002000000000000000000000000000AF01000818
:10003000B101000800000000B3010008B50100088C
:10004000B7010008B7010008B7010008B7010008B0
:10005000B7010008B7010008B7010008B7010008A0
:10006000B7010008B7010008B7010008B701000890
:10007000B7010008B7010008B7010008B701000880
:10008000B7010008B7010008B7010008B701000870
:10009000B7010008B7010008B7010008B701000860
:1000A000B7010008B7010008B7010008B701000850
:1000B000B7010008B7010008B7010008B701000840
:1000C000B7010008B7010008B7010008B701000830
:1000D000B7010008B7010008B7010008B701000820
:1000E000B7010008B7010008B7010008B701000810
:1000F000B7010008B7010008B7010008B701000800
:10010000B7010008B7010008B7010008B7010008EF
:10011000B7010008B7010008B7010008B7010008DF
:10012000B7010008B7010008B7010008B7010008CF
:10013000B7010008B7010008B7010008B7010008BF
:10014000B7010008B7010008B7010008B7010008AF
:10015000B7010008B7010008B7010008B70100089F
:10016000B7010008B7010008B7010008B70100088F
:10017000B7010008B7010008B7010008B70100087F
:10018000B7010008B7010008DFF80CD000F018F83C
:10019000004800472104000810040020064880475A
:1001A00006480047FEE7FEE7FEE7FEE7FEE7FEE75C
:1001B000FEE7FEE7FEE7FEE771030008890100089D
:1001C000064C074D06E0E06840F0010394E80700A4
:1001D00098471034AC42F6D3FFF7DAFF84040008E6
:1001E000A4040008F0B50023012403270D6804FAD5
:1001F00003F21540954242D1D0F800C05E0007FAE4
:1002000006F52CEA050CC0F800C091F804C0D0F83F
:1002100000E00CFA06FC4CEA0E0CC0F800C091F8A5
:1002200004C0BCF1010F02D0BCF1020F1FD1D0F805
:1002300008C02CEA050CC0F808C091F805C0D0F839
:1002400008E00CFA06FC4CEA0E0CC0F808C0D0F826
:1002500004C02CEA020CC0F804C0426891F806C041
:100260000CFA03FC1FFA8CFC42EA0C024260C268E2
:10027000AA43C260CA79C568B2402A43C2605B1C07
:10028000102BB3D3F0BD418370470183704700004A
:1002900002490020087002490860704700000020F1
:1002A00004000020044A0029116801D0014300E045
:1002B0008143116070470000303802400CB50020C7
:1002C0002749019000900A6842F480320A604FF496
:1002D000A0430A6802F400320092019A521C019273
:1002E000009A12B9019A9A42F3D10A68920334D55E
:1002F000012000901A484030026842F080520260AB
:100300001848026842F4404202601548083002680A
:100310000260026842F400420260026842F4A052A5
:100320000260031F104A1A600A6842F080720A6075
:100330000A689201FCD50D4A40F20571116001680E
:1003400021F003010160016841F0020101600168D0
:10035000C1F381010229FAD10CBD00900CBD00004F
:10036000003802400070004019544007003C024031
:10037000124810B5016841F470010160104801682D
:1003800041F0010101600E4A00210832116002684B
:100390000C4B1A400260031D0B4A1A60026822F4DB
:1003A0008022026006480C300160FFF787FF034996
:1003B0004FF000608039086010BD000088ED00E05B
:1003C00000380240FFFFF6FE1030002402E008C8AB
:1003D000121F08C1002AFAD170477047002001E0BF
:1003E00001C1121F002AFBD1704710B5002142F253
:1003F000107405E0224602235B1C9342FCDB491C7F
:100400008142F7D310BD00000448007810B14FF4CA
:100410007A7001E04FF4FA60FFF7E7BF00000020B8
:1004200001210820FFF73EFF14484FF480560124B5
:10043000066004710025857103214171104FC5715B
:1004400001463846FFF7CEFEFFF722FFA0460B4CD1
:10045000083C3146606840F4805060603846FFF7E1
:1004600014FF84F80080FFF7CFFF31463846FFF7CE
:100470000AFF2570FFF7C8FFEBE700000800002027
:10048000000C0240A404000800000020100000003E
:10049000CC030008B4040008100000200004000091
:1004A000DC03000800000000000000000000000065
:0404B0000000000048
:040000050800018965
:00000001FF
